:02000000802E50
:02000B0001B83A
:1000300075A882758901D28CC2B3C2B4ED11751155
:10004000E67590FFD2B3C2B4EC117511E67590FF5E
:10005000C2B3D2B4EB1175116C11E67590FFD2B337
:10006000D2B4EA117511E67590FF80CCB80003D2C6
:100070009722C29722B4090475909022B40804759F
:10008000908022B407047590B822B406047590825B
:1000900022B4050475909222B4040475909922B498
:1000A00003047590B022B4020475905B22B401047D
:1000B0007590F9227590C0220FBF010A7F000EB81B
:1000C000000308800118BE01037E000DBD09037DF9
:1000D000000CBC0603AC000BBB09037B000ABA0290
:0D00E00002AA00C28D3275F00AD5F0FD2293
:00000001FF