:02000000802E50
:0B001300115B1164115211CBC28B3243
:1000300075A88C75B8047D00C29FD29EE4E587D276
:10004000E7F587758920758DF3758BF3D28E115284
:1000500080FEC280C281C282C28322D280D281D27B
:1000600082D283227800D283C280119DD280C28145
:100070001193D281C2821189D282C283117F223030
:10008000842E3085283086222230842D30852730FA
:1000900086212230842C3085263086202230842808
:1000A00030850430861F227830227831227832223F
:1000B00078332278342278352278362278372278BD
:1000C0003822783922782A22782322E86007F599A5
:0600D0003099FDC29922E7
:00000001FF