:10000000758301758200C287740093F59011130502
:0A0010008280F575F001D5F0FD22A5
:100100009263926392639263926392639263926347
:100110009263926392639263926392639263926337
:100120009263926392639263926392639263926327
:100130009263926392639263926392639263926317
:100140009263926392639263926392639263926307
:1001500092639263926392639263926392639263F7
:1001600092639263926392639263926392639263E7
:1001700092639263926392639263926392639263D7
:1001800092639263926392639263926392639263C7
:1001900092639263926392639263926392639263B7
:1001A00092639263926392639263926392639263A7
:1001B0009263926392639263926392639263926397
:1001C0009263926392639263926392639263926387
:1001D0009263926392639263926392639263926377
:1001E0009263926392639263926392639263926367
:1001F0009263926392639263926392639263926357
:00000001FF