:10000000758301758200C287740093F59011130502
:0A0010008280F575F001D5F0FD22A5
:1001000000020406080A0C0E10121416181A1C1EFF
:1001100020222426282A2C2E30323436383A3C3EEF
:1001200040424446484A4C4E50525456585A5C5EDF
:1001300060626466686A6C6E70727476787A7C7ECF
:1001400080828486888A8C8E90929496989A9C9EBF
:10015000A0A2A4A6A8AAACAEB0B2B4B6B8BABCBEAF
:10016000C0C2C4C6C8CACCCED0D2D4D6D8DADCDE9F
:10017000E0E2E4E6E8EAECEEF0F2F4F6F8FAFCFE8F
:10018000FEFCFAF8F6F4F2F0EEECEAE8E6E4E2E07F
:10019000DEDCDAD8D6D4D2D0CECCCAC8C6C4C2C06F
:1001A000BEBCBAB8B6B4B2B0AEACAAA8A6A4A2A05F
:1001B0009E9C9A98969492908E8C8A88868482804F
:1001C0007E7C7A78767472706E6C6A68666462603F
:1001D0005E5C5A58565452504E4C4A48464442402F
:1001E0003E3C3A38363432302E2C2A28262422201F
:1001F0001E1C1A18161412100E0C0A08060402000F
:00000001FF